{
  "address": "0xA50851C1392129B84ef045A2ed6e080a03bCE144",
  "abi": [
    {
      "inputs": [
        {
          "internalType": "uint256",
          "name": "supply",
          "type": "uint256"
        },
        {
          "internalType": "address",
          "name": "defaultAdmin",
          "type": "address"
        }
      ],
      "stateMutability": "nonpayable",
      "type": "constructor"
    },
    {
      "inputs": [],
      "name": "AccessControlBadConfirmation",
      "type": "error"
    },
    {
      "inputs": [
        {
          "internalType": "address",
          "name": "account",
          "type": "address"
        },
        {
          "internalType": "bytes32",
          "name": "neededRole",
          "type": "bytes32"
        }
      ],
      "name": "AccessControlUnauthorizedAccount",
      "type": "error"
    },
    {
      "inputs": [],
      "name": "AccountAlreadyBlacklisted",
      "type": "error"
    },
    {
      "inputs": [],
      "name": "AccountBlacklisted",
      "type": "error"
    },
    {
      "inputs": [],
      "name": "AccountNotBlacklisted",
      "type": "error"
    },
    {
      "inputs": [
        {
          "internalType": "address",
          "name": "target",
          "type": "address"
        }
      ],
      "name": "AddressEmptyCode",
      "type": "error"
    },
    {
      "inputs": [
        {
          "internalType": "address",
          "name": "spender",
          "type": "address"
        },
        {
          "internalType": "uint256",
          "name": "allowance",
          "type": "uint256"
        },
        {
          "internalType": "uint256",
          "name": "needed",
          "type": "uint256"
        }
      ],
      "name": "ERC20InsufficientAllowance",
      "type": "error"
    },
    {
      "inputs": [
        {
          "internalType": "address",
          "name": "sender",
          "type": "address"
        },
        {
          "internalType": "uint256",
          "name": "balance",
          "type": "uint256"
        },
        {
          "internalType": "uint256",
          "name": "needed",
          "type": "uint256"
        }
      ],
      "name": "ERC20InsufficientBalance",
      "type": "error"
    },
    {
      "inputs": [
        {
          "internalType": "address",
          "name": "approver",
          "type": "address"
        }
      ],
      "name": "ERC20InvalidApprover",
      "type": "error"
    },
    {
      "inputs": [
        {
          "internalType": "address",
          "name": "receiver",
          "type": "address"
        }
      ],
      "name": "ERC20InvalidReceiver",
      "type": "error"
    },
    {
      "inputs": [
        {
          "internalType": "address",
          "name": "sender",
          "type": "address"
        }
      ],
      "name": "ERC20InvalidSender",
      "type": "error"
    },
    {
      "inputs": [
        {
          "internalType": "address",
          "name": "spender",
          "type": "address"
        }
      ],
      "name": "ERC20InvalidSpender",
      "type": "error"
    },
    {
      "inputs": [],
      "name": "FailedInnerCall",
      "type": "error"
    },
    {
      "inputs": [],
      "name": "ZeroAddressCannotBlacklisted",
      "type": "error"
    },
    {
      "anonymous": false,
      "inputs": [
        {
          "indexed": false,
          "internalType": "address",
          "name": "account",
          "type": "address"
        }
      ],
      "name": "AddedToBlacklist",
      "type": "event"
    },
    {
      "anonymous": false,
      "inputs": [
        {
          "indexed": true,
          "internalType": "address",
          "name": "owner",
          "type": "address"
        },
        {
          "indexed": true,
          "internalType": "address",
          "name": "spender",
          "type": "address"
        },
        {
          "indexed": false,
          "internalType": "uint256",
          "name": "value",
          "type": "uint256"
        }
      ],
      "name": "Approval",
      "type": "event"
    },
    {
      "anonymous": false,
      "inputs": [
        {
          "indexed": false,
          "internalType": "address",
          "name": "account",
          "type": "address"
        }
      ],
      "name": "RemovedFromBlacklist",
      "type": "event"
    },
    {
      "anonymous": false,
      "inputs": [
        {
          "indexed": true,
          "internalType": "bytes32",
          "name": "role",
          "type": "bytes32"
        },
        {
          "indexed": true,
          "internalType": "bytes32",
          "name": "previousAdminRole",
          "type": "bytes32"
        },
        {
          "indexed": true,
          "internalType": "bytes32",
          "name": "newAdminRole",
          "type": "bytes32"
        }
      ],
      "name": "RoleAdminChanged",
      "type": "event"
    },
    {
      "anonymous": false,
      "inputs": [
        {
          "indexed": true,
          "internalType": "bytes32",
          "name": "role",
          "type": "bytes32"
        },
        {
          "indexed": true,
          "internalType": "address",
          "name": "account",
          "type": "address"
        },
        {
          "indexed": true,
          "internalType": "address",
          "name": "sender",
          "type": "address"
        }
      ],
      "name": "RoleGranted",
      "type": "event"
    },
    {
      "anonymous": false,
      "inputs": [
        {
          "indexed": true,
          "internalType": "bytes32",
          "name": "role",
          "type": "bytes32"
        },
        {
          "indexed": true,
          "internalType": "address",
          "name": "account",
          "type": "address"
        },
        {
          "indexed": true,
          "internalType": "address",
          "name": "sender",
          "type": "address"
        }
      ],
      "name": "RoleRevoked",
      "type": "event"
    },
    {
      "anonymous": false,
      "inputs": [
        {
          "indexed": true,
          "internalType": "address",
          "name": "from",
          "type": "address"
        },
        {
          "indexed": true,
          "internalType": "address",
          "name": "to",
          "type": "address"
        },
        {
          "indexed": false,
          "internalType": "uint256",
          "name": "value",
          "type": "uint256"
        }
      ],
      "name": "Transfer",
      "type": "event"
    },
    {
      "inputs": [],
      "name": "BLACKLIST_ROLE",
      "outputs": [
        {
          "internalType": "bytes32",
          "name": "",
          "type": "bytes32"
        }
      ],
      "stateMutability": "view",
      "type": "function"
    },
    {
      "inputs": [],
      "name": "DEFAULT_ADMIN_ROLE",
      "outputs": [
        {
          "internalType": "bytes32",
          "name": "",
          "type": "bytes32"
        }
      ],
      "stateMutability": "view",
      "type": "function"
    },
    {
      "inputs": [
        {
          "internalType": "address",
          "name": "account",
          "type": "address"
        }
      ],
      "name": "addToBlacklist",
      "outputs": [],
      "stateMutability": "nonpayable",
      "type": "function"
    },
    {
      "inputs": [
        {
          "internalType": "address",
          "name": "owner",
          "type": "address"
        },
        {
          "internalType": "address",
          "name": "spender",
          "type": "address"
        }
      ],
      "name": "allowance",
      "outputs": [
        {
          "internalType": "uint256",
          "name": "",
          "type": "uint256"
        }
      ],
      "stateMutability": "view",
      "type": "function"
    },
    {
      "inputs": [
        {
          "internalType": "address",
          "name": "spender",
          "type": "address"
        },
        {
          "internalType": "uint256",
          "name": "value",
          "type": "uint256"
        }
      ],
      "name": "approve",
      "outputs": [
        {
          "internalType": "bool",
          "name": "",
          "type": "bool"
        }
      ],
      "stateMutability": "nonpayable",
      "type": "function"
    },
    {
      "inputs": [
        {
          "internalType": "address",
          "name": "account",
          "type": "address"
        }
      ],
      "name": "balanceOf",
      "outputs": [
        {
          "internalType": "uint256",
          "name": "",
          "type": "uint256"
        }
      ],
      "stateMutability": "view",
      "type": "function"
    },
    {
      "inputs": [
        {
          "internalType": "address[]",
          "name": "accounts",
          "type": "address[]"
        },
        {
          "internalType": "bool",
          "name": "toBeBlacklisted",
          "type": "bool"
        }
      ],
      "name": "batchBlacklist",
      "outputs": [],
      "stateMutability": "nonpayable",
      "type": "function"
    },
    {
      "inputs": [],
      "name": "decimals",
      "outputs": [
        {
          "internalType": "uint8",
          "name": "",
          "type": "uint8"
        }
      ],
      "stateMutability": "view",
      "type": "function"
    },
    {
      "inputs": [
        {
          "internalType": "bytes32",
          "name": "role",
          "type": "bytes32"
        }
      ],
      "name": "getRoleAdmin",
      "outputs": [
        {
          "internalType": "bytes32",
          "name": "",
          "type": "bytes32"
        }
      ],
      "stateMutability": "view",
      "type": "function"
    },
    {
      "inputs": [
        {
          "internalType": "bytes32",
          "name": "role",
          "type": "bytes32"
        },
        {
          "internalType": "address",
          "name": "account",
          "type": "address"
        }
      ],
      "name": "grantRole",
      "outputs": [],
      "stateMutability": "nonpayable",
      "type": "function"
    },
    {
      "inputs": [
        {
          "internalType": "bytes32",
          "name": "role",
          "type": "bytes32"
        },
        {
          "internalType": "address",
          "name": "account",
          "type": "address"
        }
      ],
      "name": "hasRole",
      "outputs": [
        {
          "internalType": "bool",
          "name": "",
          "type": "bool"
        }
      ],
      "stateMutability": "view",
      "type": "function"
    },
    {
      "inputs": [
        {
          "internalType": "address",
          "name": "account",
          "type": "address"
        }
      ],
      "name": "isBlacklisted",
      "outputs": [
        {
          "internalType": "bool",
          "name": "",
          "type": "bool"
        }
      ],
      "stateMutability": "view",
      "type": "function"
    },
    {
      "inputs": [
        {
          "internalType": "bytes[]",
          "name": "data",
          "type": "bytes[]"
        }
      ],
      "name": "multicall",
      "outputs": [
        {
          "internalType": "bytes[]",
          "name": "results",
          "type": "bytes[]"
        }
      ],
      "stateMutability": "nonpayable",
      "type": "function"
    },
    {
      "inputs": [],
      "name": "name",
      "outputs": [
        {
          "internalType": "string",
          "name": "",
          "type": "string"
        }
      ],
      "stateMutability": "view",
      "type": "function"
    },
    {
      "inputs": [
        {
          "internalType": "address",
          "name": "account",
          "type": "address"
        }
      ],
      "name": "removeFromBlacklist",
      "outputs": [],
      "stateMutability": "nonpayable",
      "type": "function"
    },
    {
      "inputs": [
        {
          "internalType": "bytes32",
          "name": "role",
          "type": "bytes32"
        },
        {
          "internalType": "address",
          "name": "callerConfirmation",
          "type": "address"
        }
      ],
      "name": "renounceRole",
      "outputs": [],
      "stateMutability": "nonpayable",
      "type": "function"
    },
    {
      "inputs": [
        {
          "internalType": "bytes32",
          "name": "role",
          "type": "bytes32"
        },
        {
          "internalType": "address",
          "name": "account",
          "type": "address"
        }
      ],
      "name": "revokeRole",
      "outputs": [],
      "stateMutability": "nonpayable",
      "type": "function"
    },
    {
      "inputs": [
        {
          "internalType": "bytes4",
          "name": "interfaceId",
          "type": "bytes4"
        }
      ],
      "name": "supportsInterface",
      "outputs": [
        {
          "internalType": "bool",
          "name": "",
          "type": "bool"
        }
      ],
      "stateMutability": "view",
      "type": "function"
    },
    {
      "inputs": [],
      "name": "symbol",
      "outputs": [
        {
          "internalType": "string",
          "name": "",
          "type": "string"
        }
      ],
      "stateMutability": "view",
      "type": "function"
    },
    {
      "inputs": [],
      "name": "totalSupply",
      "outputs": [
        {
          "internalType": "uint256",
          "name": "",
          "type": "uint256"
        }
      ],
      "stateMutability": "view",
      "type": "function"
    },
    {
      "inputs": [
        {
          "internalType": "address",
          "name": "to",
          "type": "address"
        },
        {
          "internalType": "uint256",
          "name": "value",
          "type": "uint256"
        }
      ],
      "name": "transfer",
      "outputs": [
        {
          "internalType": "bool",
          "name": "",
          "type": "bool"
        }
      ],
      "stateMutability": "nonpayable",
      "type": "function"
    },
    {
      "inputs": [
        {
          "internalType": "address",
          "name": "from",
          "type": "address"
        },
        {
          "internalType": "address",
          "name": "to",
          "type": "address"
        },
        {
          "internalType": "uint256",
          "name": "value",
          "type": "uint256"
        }
      ],
      "name": "transferFrom",
      "outputs": [
        {
          "internalType": "bool",
          "name": "",
          "type": "bool"
        }
      ],
      "stateMutability": "nonpayable",
      "type": "function"
    }
  ],
  "numDeployments": 1,
  "solcInputHash": "95eef84dfaa642a56214357558caa09f",
  "bytecode": "0x60806040523480156200001157600080fd5b5060405162002de038038062002de08339818101604052810190620000379190620006d8565b806040518060400160405280600f81526020017f426c61636b6c69737420455243323000000000000000000000000000000000008152506040518060400160405280600381526020017f424c5400000000000000000000000000000000000000000000000000000000008152508160039081620000b591906200098f565b508060049081620000c791906200098f565b505050620000df6000801b826200012e60201b60201c565b50620001127f22435ed027edf5f902dc0093fbc24cdb50c05b5fd5f311b78c67c1cbaff60e13826200012e60201b60201c565b50506200012681836200023260201b60201c565b505062000b79565b6000620001428383620002bf60201b60201c565b620002275760016005600085815260200190815260200160002060000160008473ffffffffffffffffffffffffffffffffffffffff1673ffffffffffffffffffffffffffffffffffffffff16815260200190815260200160002060006101000a81548160ff021916908315150217905550620001c36200032a60201b60201c565b73ffffffffffffffffffffffffffffffffffffffff168273ffffffffffffffffffffffffffffffffffffffff16847f2f8788117e7eff1d82e926ec794901d17c78024a50270940304540a733656f0d60405160405180910390a4600190506200022c565b600090505b92915050565b600073ffffffffffffffffffffffffffffffffffffffff168273ffffffffffffffffffffffffffffffffffffffff1603620002a75760006040517fec442f050000000000000000000000000000000000000000000000000000000081526004016200029e919062000a87565b60405180910390fd5b620002bb600083836200033260201b60201c565b5050565b60006005600084815260200190815260200160002060000160008373ffffffffffffffffffffffffffffffffffffffff1673ffffffffffffffffffffffffffffffffffffffff16815260200190815260200160002060009054906101000a900460ff16905092915050565b600033905090565b62000343836200039360201b60201c565b156200037b576040517f7d28af3f00000000000000000000000000000000000000000000000000000000815260040160405180910390fd5b6200038e838383620003ad60201b60201c565b505050565b6000620003a682620005dd60201b60201c565b9050919050565b600073ffffffffffffffffffffffffffffffffffffffff168373ffffffffffffffffffffffffffffffffffffffff160362000403578060026000828254620003f6919062000ad3565b92505081905550620004d9565b60008060008573ffffffffffffffffffffffffffffffffffffffff1673ffffffffffffffffffffffffffffffffffffffff1681526020019081526020016000205490508181101562000492578381836040517fe450d38c000000000000000000000000000000000000000000000000000000008152600401620004899392919062000b1f565b60405180910390fd5b8181036000808673ffffffffffffffffffffffffffffffffffffffff1673ffffffffffffffffffffffffffffffffffffffff16815260200190815260200160002081905550505b600073ffffffffffffffffffffffffffffffffffffffff168273ffffffffffffffffffffffffffffffffffffffff160362000524578060026000828254039250508190555062000571565b806000808473ffffffffffffffffffffffffffffffffffffffff1673ffffffffffffffffffffffffffffffffffffffff168152602001908152602001600020600082825401925050819055505b8173ffffffffffffffffffffffffffffffffffffffff168373ffffffffffffffffffffffffffffffffffffffff167fddf252ad1be2c89b69c2b068fc378daa952ba7f163c4a11628f55a4df523b3ef83604051620005d0919062000b5c565b60405180910390a3505050565b6000600660008373ffffffffffffffffffffffffffffffffffffffff1673ffffffffffffffffffffffffffffffffffffffff16815260200190815260200160002060009054906101000a900460ff169050919050565b600080fd5b6000819050919050565b6200064d8162000638565b81146200065957600080fd5b50565b6000815190506200066d8162000642565b92915050565b600073ffffffffffffffffffffffffffffffffffffffff82169050919050565b6000620006a08262000673565b9050919050565b620006b28162000693565b8114620006be57600080fd5b50565b600081519050620006d281620006a7565b92915050565b60008060408385031215620006f257620006f162000633565b5b600062000702858286016200065c565b92505060206200071585828601620006c1565b9150509250929050565b600081519050919050565b7f4e487b7100000000000000000000000000000000000000000000000000000000600052604160045260246000fd5b7f4e487b7100000000000000000000000000000000000000000000000000000000600052602260045260246000fd5b60006002820490506001821680620007a157607f821691505b602082108103620007b757620007b662000759565b5b50919050565b60008190508160005260206000209050919050565b60006020601f8301049050919050565b600082821b905092915050565b600060088302620008217fffffffffffffffffffffffffffffffffffffffffffffffffffffffffffffffff82620007e2565b6200082d8683620007e2565b95508019841693508086168417925050509392505050565b6000819050919050565b6000620008706200086a620008648462000638565b62000845565b62000638565b9050919050565b6000819050919050565b6200088c836200084f565b620008a46200089b8262000877565b848454620007ef565b825550505050565b600090565b620008bb620008ac565b620008c881848462000881565b505050565b5b81811015620008f057620008e4600082620008b1565b600181019050620008ce565b5050565b601f8211156200093f576200090981620007bd565b6200091484620007d2565b8101602085101562000924578190505b6200093c6200093385620007d2565b830182620008cd565b50505b505050565b600082821c905092915050565b6000620009646000198460080262000944565b1980831691505092915050565b60006200097f838362000951565b9150826002028217905092915050565b6200099a826200071f565b67ffffffffffffffff811115620009b657620009b56200072a565b5b620009c2825462000788565b620009cf828285620008f4565b600060209050601f83116001811462000a075760008415620009f2578287015190505b620009fe858262000971565b86555062000a6e565b601f19841662000a1786620007bd565b60005b8281101562000a415784890151825560018201915060208501945060208101905062000a1a565b8683101562000a61578489015162000a5d601f89168262000951565b8355505b6001600288020188555050505b505050505050565b62000a818162000693565b82525050565b600060208201905062000a9e600083018462000a76565b92915050565b7f4e487b7100000000000000000000000000000000000000000000000000000000600052601160045260246000fd5b600062000ae08262000638565b915062000aed8362000638565b925082820190508082111562000b085762000b0762000aa4565b5b92915050565b62000b198162000638565b82525050565b600060608201905062000b36600083018662000a76565b62000b45602083018562000b0e565b62000b54604083018462000b0e565b949350505050565b600060208201905062000b73600083018462000b0e565b92915050565b6122578062000b896000396000f3fe608060405234801561001057600080fd5b50600436106101425760003560e01c806344337ea1116100b8578063a217fddf1161007c578063a217fddf14610389578063a9059cbb146103a7578063ac9650d8146103d7578063d547741f14610407578063dd62ed3e14610423578063fe575a871461045357610142565b806344337ea1146102d3578063537df3b6146102ef57806370a082311461030b57806391d148541461033b57806395d89b411461036b57610142565b80631a2266b01161010a5780631a2266b01461020157806323b872dd1461021d578063248a9ca31461024d5780632f2ff15d1461027d578063313ce5671461029957806336568abe146102b757610142565b806301ffc9a71461014757806306fdde0314610177578063095ea7b31461019557806318160ddd146101c557806319afe463146101e3575b600080fd5b610161600480360381019061015c9190611858565b610483565b60405161016e91906118a0565b60405180910390f35b61017f6104fd565b60405161018c919061194b565b60405180910390f35b6101af60048036038101906101aa9190611a01565b61058f565b6040516101bc91906118a0565b60405180910390f35b6101cd6105b2565b6040516101da9190611a50565b60405180910390f35b6101eb6105bc565b6040516101f89190611a84565b60405180910390f35b61021b60048036038101906102169190611c13565b6105e0565b005b61023760048036038101906102329190611c6f565b610678565b60405161024491906118a0565b60405180910390f35b61026760048036038101906102629190611cee565b6106a7565b6040516102749190611a84565b60405180910390f35b61029760048036038101906102929190611d1b565b6106c7565b005b6102a16106e9565b6040516102ae9190611d77565b60405180910390f35b6102d160048036038101906102cc9190611d1b565b6106f2565b005b6102ed60048036038101906102e89190611d92565b61076d565b005b61030960048036038101906103049190611d92565b61088e565b005b61032560048036038101906103209190611d92565b610948565b6040516103329190611a50565b60405180910390f35b61035560048036038101906103509190611d1b565b610990565b60405161036291906118a0565b60405180910390f35b6103736109fb565b604051610380919061194b565b60405180910390f35b610391610a8d565b60405161039e9190611a84565b60405180910390f35b6103c160048036038101906103bc9190611a01565b610a94565b6040516103ce91906118a0565b60405180910390f35b6103f160048036038101906103ec9190611e1a565b610ab7565b6040516103fe9190611f7e565b60405180910390f35b610421600480360381019061041c9190611d1b565b610bbd565b005b61043d60048036038101906104389190611fa0565b610bdf565b60405161044a9190611a50565b60405180910390f35b61046d60048036038101906104689190611d92565b610c66565b60405161047a91906118a0565b60405180910390f35b60007f7965db0b000000000000000000000000000000000000000000000000000000007bffffffffffffffffffffffffffffffffffffffffffffffffffffffff1916827bffffffffffffffffffffffffffffffffffffffffffffffffffffffff191614806104f657506104f582610c78565b5b9050919050565b60606003805461050c9061200f565b80601f01602080910402602001604051908101604052809291908181526020018280546105389061200f565b80156105855780601f1061055a57610100808354040283529160200191610585565b820191906000526020600020905b81548152906001019060200180831161056857829003601f168201915b5050505050905090565b60008061059a610ce2565b90506105a7818585610cea565b600191505092915050565b6000600254905090565b7f22435ed027edf5f902dc0093fbc24cdb50c05b5fd5f311b78c67c1cbaff60e1381565b7f22435ed027edf5f902dc0093fbc24cdb50c05b5fd5f311b78c67c1cbaff60e1361060a81610cfc565b60005b835181101561067257826106435761063e84828151811061063157610630612040565b5b6020026020010151610d10565b610667565b61066684828151811061065957610658612040565b5b6020026020010151610da2565b5b80600101905061060d565b50505050565b600080610683610ce2565b9050610690858285610e34565b61069b858585610ec8565b60019150509392505050565b600060056000838152602001908152602001600020600101549050919050565b6106d0826106a7565b6106d981610cfc565b6106e38383610fbc565b50505050565b60006012905090565b6106fa610ce2565b73ffffffffffffffffffffffffffffffffffffffff168173ffffffffffffffffffffffffffffffffffffffff161461075e576040517f6697b23200000000000000000000000000000000000000000000000000000000815260040160405180910390fd5b61076882826110ae565b505050565b7f22435ed027edf5f902dc0093fbc24cdb50c05b5fd5f311b78c67c1cbaff60e1361079781610cfc565b600073ffffffffffffffffffffffffffffffffffffffff168273ffffffffffffffffffffffffffffffffffffffff16036107fd576040517f3c70ac7500000000000000000000000000000000000000000000000000000000815260040160405180910390fd5b600660008373ffffffffffffffffffffffffffffffffffffffff1673ffffffffffffffffffffffffffffffffffffffff16815260200190815260200160002060009054906101000a900460ff1615610881576040517fcb2a4ebd00000000000000000000000000000000000000000000000000000000815260040160405180910390fd5b61088a82610da2565b5050565b7f22435ed027edf5f902dc0093fbc24cdb50c05b5fd5f311b78c67c1cbaff60e136108b881610cfc565b600660008373ffffffffffffffffffffffffffffffffffffffff1673ffffffffffffffffffffffffffffffffffffffff16815260200190815260200160002060009054906101000a900460ff1661093b576040517f60949b5100000000000000000000000000000000000000000000000000000000815260040160405180910390fd5b61094482610d10565b5050565b60008060008373ffffffffffffffffffffffffffffffffffffffff1673ffffffffffffffffffffffffffffffffffffffff168152602001908152602001600020549050919050565b60006005600084815260200190815260200160002060000160008373ffffffffffffffffffffffffffffffffffffffff1673ffffffffffffffffffffffffffffffffffffffff16815260200190815260200160002060009054906101000a900460ff16905092915050565b606060048054610a0a9061200f565b80601f0160208091040260200160405190810160405280929190818152602001828054610a369061200f565b8015610a835780601f10610a5857610100808354040283529160200191610a83565b820191906000526020600020905b815481529060010190602001808311610a6657829003601f168201915b5050505050905090565b6000801b81565b600080610a9f610ce2565b9050610aac818585610ec8565b600191505092915050565b60608282905067ffffffffffffffff811115610ad657610ad5611aa4565b5b604051908082528060200260200182016040528015610b0957816020015b6060815260200190600190039081610af45790505b50905060005b83839050811015610bb657610b8b30858584818110610b3157610b30612040565b5b9050602002810190610b43919061207e565b8080601f016020809104026020016040519081016040528093929190818152602001838380828437600081840152601f19601f820116905080830192505050505050506111a1565b828281518110610b9e57610b9d612040565b5b60200260200101819052508080600101915050610b0f565b5092915050565b610bc6826106a7565b610bcf81610cfc565b610bd983836110ae565b50505050565b6000600160008473ffffffffffffffffffffffffffffffffffffffff1673ffffffffffffffffffffffffffffffffffffffff16815260200190815260200160002060008373ffffffffffffffffffffffffffffffffffffffff1673ffffffffffffffffffffffffffffffffffffffff16815260200190815260200160002054905092915050565b6000610c7182611225565b9050919050565b60007f01ffc9a7000000000000000000000000000000000000000000000000000000007bffffffffffffffffffffffffffffffffffffffffffffffffffffffff1916827bffffffffffffffffffffffffffffffffffffffffffffffffffffffff1916149050919050565b600033905090565b610cf7838383600161127b565b505050565b610d0d81610d08610ce2565b611452565b50565b6000600660008373ffffffffffffffffffffffffffffffffffffffff1673ffffffffffffffffffffffffffffffffffffffff16815260200190815260200160002060006101000a81548160ff0219169083151502179055507f2b6bf71b58b3583add364b3d9060ebf8019650f65f5be35f5464b9cb3e4ba2d481604051610d9791906120f0565b60405180910390a150565b6001600660008373ffffffffffffffffffffffffffffffffffffffff1673ffffffffffffffffffffffffffffffffffffffff16815260200190815260200160002060006101000a81548160ff0219169083151502179055507ff9b68063b051b82957fa193585681240904fed808db8b30fc5a2d2202c6ed62781604051610e2991906120f0565b60405180910390a150565b6000610e408484610bdf565b90507fffffffffffffffffffffffffffffffffffffffffffffffffffffffffffffffff8114610ec25781811015610eb2578281836040517ffb8f41b2000000000000000000000000000000000000000000000000000000008152600401610ea99392919061210b565b60405180910390fd5b610ec18484848403600061127b565b5b50505050565b600073ffffffffffffffffffffffffffffffffffffffff168373ffffffffffffffffffffffffffffffffffffffff1603610f3a5760006040517f96c6fd1e000000000000000000000000000000000000000000000000000000008152600401610f3191906120f0565b60405180910390fd5b600073ffffffffffffffffffffffffffffffffffffffff168273ffffffffffffffffffffffffffffffffffffffff1603610fac5760006040517fec442f05000000000000000000000000000000000000000000000000000000008152600401610fa391906120f0565b60405180910390fd5b610fb78383836114a3565b505050565b6000610fc88383610990565b6110a35760016005600085815260200190815260200160002060000160008473ffffffffffffffffffffffffffffffffffffffff1673ffffffffffffffffffffffffffffffffffffffff16815260200190815260200160002060006101000a81548160ff021916908315150217905550611040610ce2565b73ffffffffffffffffffffffffffffffffffffffff168273ffffffffffffffffffffffffffffffffffffffff16847f2f8788117e7eff1d82e926ec794901d17c78024a50270940304540a733656f0d60405160405180910390a4600190506110a8565b600090505b92915050565b60006110ba8383610990565b156111965760006005600085815260200190815260200160002060000160008473ffffffffffffffffffffffffffffffffffffffff1673ffffffffffffffffffffffffffffffffffffffff16815260200190815260200160002060006101000a81548160ff021916908315150217905550611133610ce2565b73ffffffffffffffffffffffffffffffffffffffff168273ffffffffffffffffffffffffffffffffffffffff16847ff6391f5c32d9c69d2a47ea670b442974b53935d1edc7fd64eb21e047a839171b60405160405180910390a46001905061119b565b600090505b92915050565b60606000808473ffffffffffffffffffffffffffffffffffffffff16846040516111cb919061217e565b600060405180830381855af49150503d8060008114611206576040519150601f19603f3d011682016040523d82523d6000602084013e61120b565b606091505b509150915061121b8583836114f3565b9250505092915050565b6000600660008373ffffffffffffffffffffffffffffffffffffffff1673ffffffffffffffffffffffffffffffffffffffff16815260200190815260200160002060009054906101000a900460ff169050919050565b600073ffffffffffffffffffffffffffffffffffffffff168473ffffffffffffffffffffffffffffffffffffffff16036112ed5760006040517fe602df050000000000000000000000000000000000000000000000000000000081526004016112e491906120f0565b60405180910390fd5b600073ffffffffffffffffffffffffffffffffffffffff168373ffffffffffffffffffffffffffffffffffffffff160361135f5760006040517f94280d6200000000000000000000000000000000000000000000000000000000815260040161135691906120f0565b60405180910390fd5b81600160008673ffffffffffffffffffffffffffffffffffffffff1673ffffffffffffffffffffffffffffffffffffffff16815260200190815260200160002060008573ffffffffffffffffffffffffffffffffffffffff1673ffffffffffffffffffffffffffffffffffffffff16815260200190815260200160002081905550801561144c578273ffffffffffffffffffffffffffffffffffffffff168473ffffffffffffffffffffffffffffffffffffffff167f8c5be1e5ebec7d5bd14f71427d1e84f3dd0314c0f7b2291e5b200ac8c7c3b925846040516114439190611a50565b60405180910390a35b50505050565b61145c8282610990565b61149f5780826040517fe2517d3f000000000000000000000000000000000000000000000000000000008152600401611496929190612195565b60405180910390fd5b5050565b6114ac83610c66565b156114e3576040517f7d28af3f00000000000000000000000000000000000000000000000000000000815260040160405180910390fd5b6114ee838383611582565b505050565b60608261150857611503826117a7565b61157a565b60008251148015611530575060008473ffffffffffffffffffffffffffffffffffffffff163b145b1561157257836040517f9996b31500000000000000000000000000000000000000000000000000000000815260040161156991906120f0565b60405180910390fd5b81905061157b565b5b9392505050565b600073ffffffffffffffffffffffffffffffffffffffff168373ffffffffffffffffffffffffffffffffffffffff16036115d45780600260008282546115c891906121ed565b925050819055506116a7565b60008060008573ffffffffffffffffffffffffffffffffffffffff1673ffffffffffffffffffffffffffffffffffffffff16815260200190815260200160002054905081811015611660578381836040517fe450d38c0000000000000000000000000000000000000000000000000000000081526004016116579392919061210b565b60405180910390fd5b8181036000808673ffffffffffffffffffffffffffffffffffffffff1673ffffffffffffffffffffffffffffffffffffffff16815260200190815260200160002081905550505b600073ffffffffffffffffffffffffffffffffffffffff168273ffffffffffffffffffffffffffffffffffffffff16036116f0578060026000828254039250508190555061173d565b806000808473ffffffffffffffffffffffffffffffffffffffff1673ffffffffffffffffffffffffffffffffffffffff168152602001908152602001600020600082825401925050819055505b8173ffffffffffffffffffffffffffffffffffffffff168373ffffffffffffffffffffffffffffffffffffffff167fddf252ad1be2c89b69c2b068fc378daa952ba7f163c4a11628f55a4df523b3ef8360405161179a9190611a50565b60405180910390a3505050565b6000815111156117ba5780518082602001fd5b6040517f1425ea4200000000000000000000000000000000000000000000000000000000815260040160405180910390fd5b6000604051905090565b600080fd5b600080fd5b60007fffffffff0000000000000000000000000000000000000000000000000000000082169050919050565b61183581611800565b811461184057600080fd5b50565b6000813590506118528161182c565b92915050565b60006020828403121561186e5761186d6117f6565b5b600061187c84828501611843565b91505092915050565b60008115159050919050565b61189a81611885565b82525050565b60006020820190506118b56000830184611891565b92915050565b600081519050919050565b600082825260208201905092915050565b60005b838110156118f55780820151818401526020810190506118da565b60008484015250505050565b6000601f19601f8301169050919050565b600061191d826118bb565b61192781856118c6565b93506119378185602086016118d7565b61194081611901565b840191505092915050565b600060208201905081810360008301526119658184611912565b905092915050565b600073ffffffffffffffffffffffffffffffffffffffff82169050919050565b60006119988261196d565b9050919050565b6119a88161198d565b81146119b357600080fd5b50565b6000813590506119c58161199f565b92915050565b6000819050919050565b6119de816119cb565b81146119e957600080fd5b50565b6000813590506119fb816119d5565b92915050565b60008060408385031215611a1857611a176117f6565b5b6000611a26858286016119b6565b9250506020611a37858286016119ec565b9150509250929050565b611a4a816119cb565b82525050565b6000602082019050611a656000830184611a41565b92915050565b6000819050919050565b611a7e81611a6b565b82525050565b6000602082019050611a996000830184611a75565b92915050565b600080fd5b7f4e487b7100000000000000000000000000000000000000000000000000000000600052604160045260246000fd5b611adc82611901565b810181811067ffffffffffffffff82111715611afb57611afa611aa4565b5b80604052505050565b6000611b0e6117ec565b9050611b1a8282611ad3565b919050565b600067ffffffffffffffff821115611b3a57611b39611aa4565b5b602082029050602081019050919050565b600080fd5b6000611b63611b5e84611b1f565b611b04565b90508083825260208201905060208402830185811115611b8657611b85611b4b565b5b835b81811015611baf5780611b9b88826119b6565b845260208401935050602081019050611b88565b5050509392505050565b600082601f830112611bce57611bcd611a9f565b5b8135611bde848260208601611b50565b91505092915050565b611bf081611885565b8114611bfb57600080fd5b50565b600081359050611c0d81611be7565b92915050565b60008060408385031215611c2a57611c296117f6565b5b600083013567ffffffffffffffff811115611c4857611c476117fb565b5b611c5485828601611bb9565b9250506020611c6585828601611bfe565b9150509250929050565b600080600060608486031215611c8857611c876117f6565b5b6000611c96868287016119b6565b9350506020611ca7868287016119b6565b9250506040611cb8868287016119ec565b9150509250925092565b611ccb81611a6b565b8114611cd657600080fd5b50565b600081359050611ce881611cc2565b92915050565b600060208284031215611d0457611d036117f6565b5b6000611d1284828501611cd9565b91505092915050565b60008060408385031215611d3257611d316117f6565b5b6000611d4085828601611cd9565b9250506020611d51858286016119b6565b9150509250929050565b600060ff82169050919050565b611d7181611d5b565b82525050565b6000602082019050611d8c6000830184611d68565b92915050565b600060208284031215611da857611da76117f6565b5b6000611db6848285016119b6565b91505092915050565b600080fd5b60008083601f840112611dda57611dd9611a9f565b5b8235905067ffffffffffffffff811115611df757611df6611dbf565b5b602083019150836020820283011115611e1357611e12611b4b565b5b9250929050565b60008060208385031215611e3157611e306117f6565b5b600083013567ffffffffffffffff811115611e4f57611e4e6117fb565b5b611e5b85828601611dc4565b92509250509250929050565b600081519050919050565b600082825260208201905092915050565b6000819050602082019050919050565b600081519050919050565b600082825260208201905092915050565b6000611eba82611e93565b611ec48185611e9e565b9350611ed48185602086016118d7565b611edd81611901565b840191505092915050565b6000611ef48383611eaf565b905092915050565b6000602082019050919050565b6000611f1482611e67565b611f1e8185611e72565b935083602082028501611f3085611e83565b8060005b85811015611f6c5784840389528151611f4d8582611ee8565b9450611f5883611efc565b925060208a01995050600181019050611f34565b50829750879550505050505092915050565b60006020820190508181036000830152611f988184611f09565b905092915050565b60008060408385031215611fb757611fb66117f6565b5b6000611fc5858286016119b6565b9250506020611fd6858286016119b6565b9150509250929050565b7f4e487b7100000000000000000000000000000000000000000000000000000000600052602260045260246000fd5b6000600282049050600182168061202757607f821691505b60208210810361203a57612039611fe0565b5b50919050565b7f4e487b7100000000000000000000000000000000000000000000000000000000600052603260045260246000fd5b600080fd5b600080fd5b600080fd5b6000808335600160200384360303811261209b5761209a61206f565b5b80840192508235915067ffffffffffffffff8211156120bd576120bc612074565b5b6020830192506001820236038313156120d9576120d8612079565b5b509250929050565b6120ea8161198d565b82525050565b600060208201905061210560008301846120e1565b92915050565b600060608201905061212060008301866120e1565b61212d6020830185611a41565b61213a6040830184611a41565b949350505050565b600081905092915050565b600061215882611e93565b6121628185612142565b93506121728185602086016118d7565b80840191505092915050565b600061218a828461214d565b915081905092915050565b60006040820190506121aa60008301856120e1565b6121b76020830184611a75565b9392505050565b7f4e487b7100000000000000000000000000000000000000000000000000000000600052601160045260246000fd5b60006121f8826119cb565b9150612203836119cb565b925082820190508082111561221b5761221a6121be565b5b9291505056fea2646970667358221220f983dffb7b3814b9ec891e9a7ff9a88ec64c5fa690d518574e5c0e1b05c590d164736f6c63430008170033",
  "devdoc": {
    "errors": {
      "AccessControlBadConfirmation()": [
        {
          "details": "The caller of a function is not the expected one. NOTE: Don't confuse with {AccessControlUnauthorizedAccount}."
        }
      ],
      "AccessControlUnauthorizedAccount(address,bytes32)": [
        {
          "details": "The `account` is missing a role."
        }
      ],
      "AddressEmptyCode(address)": [
        {
          "details": "There's no code at `target` (it is not a contract)."
        }
      ],
      "ERC20InsufficientAllowance(address,uint256,uint256)": [
        {
          "details": "Indicates a failure with the `spender`s `allowance`. Used in transfers.",
          "params": {
            "allowance": "Amount of tokens a `spender` is allowed to operate with.",
            "needed": "Minimum amount required to perform a transfer.",
            "spender": "Address that may be allowed to operate on tokens without being their owner."
          }
        }
      ],
      "ERC20InsufficientBalance(address,uint256,uint256)": [
        {
          "details": "Indicates an error related to the current `balance` of a `sender`. Used in transfers.",
          "params": {
            "balance": "Current balance for the interacting account.",
            "needed": "Minimum amount required to perform a transfer.",
            "sender": "Address whose tokens are being transferred."
          }
        }
      ],
      "ERC20InvalidApprover(address)": [
        {
          "details": "Indicates a failure with the `approver` of a token to be approved. Used in approvals.",
          "params": {
            "approver": "Address initiating an approval operation."
          }
        }
      ],
      "ERC20InvalidReceiver(address)": [
        {
          "details": "Indicates a failure with the token `receiver`. Used in transfers.",
          "params": {
            "receiver": "Address to which tokens are being transferred."
          }
        }
      ],
      "ERC20InvalidSender(address)": [
        {
          "details": "Indicates a failure with the token `sender`. Used in transfers.",
          "params": {
            "sender": "Address whose tokens are being transferred."
          }
        }
      ],
      "ERC20InvalidSpender(address)": [
        {
          "details": "Indicates a failure with the `spender` to be approved. Used in approvals.",
          "params": {
            "spender": "Address that may be allowed to operate on tokens without being their owner."
          }
        }
      ],
      "FailedInnerCall()": [
        {
          "details": "A call to an address target failed. The target may have reverted."
        }
      ]
    },
    "events": {
      "Approval(address,address,uint256)": {
        "details": "Emitted when the allowance of a `spender` for an `owner` is set by a call to {approve}. `value` is the new allowance."
      },
      "RoleAdminChanged(bytes32,bytes32,bytes32)": {
        "details": "Emitted when `newAdminRole` is set as ``role``'s admin role, replacing `previousAdminRole` `DEFAULT_ADMIN_ROLE` is the starting admin for all roles, despite {RoleAdminChanged} not being emitted signaling this."
      },
      "RoleGranted(bytes32,address,address)": {
        "details": "Emitted when `account` is granted `role`. `sender` is the account that originated the contract call, an admin role bearer except when using {AccessControl-_setupRole}."
      },
      "RoleRevoked(bytes32,address,address)": {
        "details": "Emitted when `account` is revoked `role`. `sender` is the account that originated the contract call:   - if using `revokeRole`, it is the admin role bearer   - if using `renounceRole`, it is the role bearer (i.e. `account`)"
      },
      "Transfer(address,address,uint256)": {
        "details": "Emitted when `value` tokens are moved from one account (`from`) to another (`to`). Note that `value` may be zero."
      }
    },
    "kind": "dev",
    "methods": {
      "allowance(address,address)": {
        "details": "See {IERC20-allowance}."
      },
      "approve(address,uint256)": {
        "details": "See {IERC20-approve}. NOTE: If `value` is the maximum `uint256`, the allowance is not updated on `transferFrom`. This is semantically equivalent to an infinite approval. Requirements: - `spender` cannot be the zero address."
      },
      "balanceOf(address)": {
        "details": "See {IERC20-balanceOf}."
      },
      "decimals()": {
        "details": "Returns the number of decimals used to get its user representation. For example, if `decimals` equals `2`, a balance of `505` tokens should be displayed to a user as `5.05` (`505 / 10 ** 2`). Tokens usually opt for a value of 18, imitating the relationship between Ether and Wei. This is the default value returned by this function, unless it's overridden. NOTE: This information is only used for _display_ purposes: it in no way affects any of the arithmetic of the contract, including {IERC20-balanceOf} and {IERC20-transfer}."
      },
      "getRoleAdmin(bytes32)": {
        "details": "Returns the admin role that controls `role`. See {grantRole} and {revokeRole}. To change a role's admin, use {_setRoleAdmin}."
      },
      "grantRole(bytes32,address)": {
        "details": "Grants `role` to `account`. If `account` had not been already granted `role`, emits a {RoleGranted} event. Requirements: - the caller must have ``role``'s admin role. May emit a {RoleGranted} event."
      },
      "hasRole(bytes32,address)": {
        "details": "Returns `true` if `account` has been granted `role`."
      },
      "multicall(bytes[])": {
        "custom:oz-upgrades-unsafe-allow-reachable": "delegatecall",
        "details": "Receives and executes a batch of function calls on this contract."
      },
      "name()": {
        "details": "Returns the name of the token."
      },
      "renounceRole(bytes32,address)": {
        "details": "Revokes `role` from the calling account. Roles are often managed via {grantRole} and {revokeRole}: this function's purpose is to provide a mechanism for accounts to lose their privileges if they are compromised (such as when a trusted device is misplaced). If the calling account had been revoked `role`, emits a {RoleRevoked} event. Requirements: - the caller must be `callerConfirmation`. May emit a {RoleRevoked} event."
      },
      "revokeRole(bytes32,address)": {
        "details": "Revokes `role` from `account`. If `account` had been granted `role`, emits a {RoleRevoked} event. Requirements: - the caller must have ``role``'s admin role. May emit a {RoleRevoked} event."
      },
      "supportsInterface(bytes4)": {
        "details": "See {IERC165-supportsInterface}."
      },
      "symbol()": {
        "details": "Returns the symbol of the token, usually a shorter version of the name."
      },
      "totalSupply()": {
        "details": "See {IERC20-totalSupply}."
      },
      "transfer(address,uint256)": {
        "details": "See {IERC20-transfer}. Requirements: - `to` cannot be the zero address. - the caller must have a balance of at least `value`."
      },
      "transferFrom(address,address,uint256)": {
        "details": "See {IERC20-transferFrom}. Emits an {Approval} event indicating the updated allowance. This is not required by the EIP. See the note at the beginning of {ERC20}. NOTE: Does not update the allowance if the current allowance is the maximum `uint256`. Requirements: - `from` and `to` cannot be the zero address. - `from` must have a balance of at least `value`. - the caller must have allowance for ``from``'s tokens of at least `value`."
      }
    },
    "version": 1
  },
  "userdoc": {
    "kind": "user",
    "methods": {},
    "version": 1
  },
  "storageLayout": {
    "storage": [
      {
        "astId": 538,
        "contract": "contracts/BlacklistERC20.sol:BlacklistERC20",
        "label": "_balances",
        "offset": 0,
        "slot": "0",
        "type": "t_mapping(t_address,t_uint256)"
      },
      {
        "astId": 544,
        "contract": "contracts/BlacklistERC20.sol:BlacklistERC20",
        "label": "_allowances",
        "offset": 0,
        "slot": "1",
        "type": "t_mapping(t_address,t_mapping(t_address,t_uint256))"
      },
      {
        "astId": 546,
        "contract": "contracts/BlacklistERC20.sol:BlacklistERC20",
        "label": "_totalSupply",
        "offset": 0,
        "slot": "2",
        "type": "t_uint256"
      },
      {
        "astId": 548,
        "contract": "contracts/BlacklistERC20.sol:BlacklistERC20",
        "label": "_name",
        "offset": 0,
        "slot": "3",
        "type": "t_string_storage"
      },
      {
        "astId": 550,
        "contract": "contracts/BlacklistERC20.sol:BlacklistERC20",
        "label": "_symbol",
        "offset": 0,
        "slot": "4",
        "type": "t_string_storage"
      },
      {
        "astId": 26,
        "contract": "contracts/BlacklistERC20.sol:BlacklistERC20",
        "label": "_roles",
        "offset": 0,
        "slot": "5",
        "type": "t_mapping(t_bytes32,t_struct(RoleData)21_storage)"
      },
      {
        "astId": 1515,
        "contract": "contracts/BlacklistERC20.sol:BlacklistERC20",
        "label": "blacklisted",
        "offset": 0,
        "slot": "6",
        "type": "t_mapping(t_address,t_bool)"
      }
    ],
    "types": {
      "t_address": {
        "encoding": "inplace",
        "label": "address",
        "numberOfBytes": "20"
      },
      "t_bool": {
        "encoding": "inplace",
        "label": "bool",
        "numberOfBytes": "1"
      },
      "t_bytes32": {
        "encoding": "inplace",
        "label": "bytes32",
        "numberOfBytes": "32"
      },
      "t_mapping(t_address,t_bool)": {
        "encoding": "mapping",
        "key": "t_address",
        "label": "mapping(address => bool)",
        "numberOfBytes": "32",
        "value": "t_bool"
      },
      "t_mapping(t_address,t_mapping(t_address,t_uint256))": {
        "encoding": "mapping",
        "key": "t_address",
        "label": "mapping(address => mapping(address => uint256))",
        "numberOfBytes": "32",
        "value": "t_mapping(t_address,t_uint256)"
      },
      "t_mapping(t_address,t_uint256)": {
        "encoding": "mapping",
        "key": "t_address",
        "label": "mapping(address => uint256)",
        "numberOfBytes": "32",
        "value": "t_uint256"
      },
      "t_mapping(t_bytes32,t_struct(RoleData)21_storage)": {
        "encoding": "mapping",
        "key": "t_bytes32",
        "label": "mapping(bytes32 => struct AccessControl.RoleData)",
        "numberOfBytes": "32",
        "value": "t_struct(RoleData)21_storage"
      },
      "t_string_storage": {
        "encoding": "bytes",
        "label": "string",
        "numberOfBytes": "32"
      },
      "t_struct(RoleData)21_storage": {
        "encoding": "inplace",
        "label": "struct AccessControl.RoleData",
        "members": [
          {
            "astId": 18,
            "contract": "contracts/BlacklistERC20.sol:BlacklistERC20",
            "label": "hasRole",
            "offset": 0,
            "slot": "0",
            "type": "t_mapping(t_address,t_bool)"
          },
          {
            "astId": 20,
            "contract": "contracts/BlacklistERC20.sol:BlacklistERC20",
            "label": "adminRole",
            "offset": 0,
            "slot": "1",
            "type": "t_bytes32"
          }
        ],
        "numberOfBytes": "64"
      },
      "t_uint256": {
        "encoding": "inplace",
        "label": "uint256",
        "numberOfBytes": "32"
      }
    }
  }
}